:020000040000FA
:06000000020B3E02024962
:03002B0002091EA9
:030043000207ECC5
:0300530002017E29
:03006B0002073B4E
:100083000201DD010020FD00020000360F00000028
:100093000000009C0F0000000000001E0F00000085
:1000A300000000000000000000000000000000004D
:1000B300000000000006FFFF060001B71800000063
:1000C300015357353A2048656C70202020202020AA
:1000D3002000FE13041400000A1410140000000092
:1000E30000000000000000000000000000001020DD
:1000F300202020202020202020202020202020011C
:1001030001040100010005928101978201010104AC
:1001130000F518000000E8030000FFFFC119E80321
:10012300000064006400B801A0BB0D00A0BB0D007B
:100133000202008000000502070401051E02051EDD
:10014300020A0A0102080803B80B02803E0102FEFC
:10015300FFE8030A050001FFFF010A1401E00101A2
:1001630005030101FF0F10FEFFC82A00000000FE77
:100173002900000000FF000000FF00C0E074F1123E
:100183000460A2AFE433F509D2AF85A708AFA1EFAE
:100193005508FE74105E6006120CB475A1EF740866
:1001A3005E6008120CBA75A1F78024EFA2E092F00A
:1001B300E508A2E082F05017906198E0F89005817D
:1001C300E0C398A2D265D0335002E8F075A1FEE5F2
:1001D30009A2E092AF7F020204BFC0E074F21204EE
:1001E30060A2AFE433FED2AF9061A4E0F8759B0048
:1001F300E59158540860087591F7120D028023E5C4
:100203009158541060087591EF120D088014E59110
:10021300A2E092F0E8A2E082F05007E0C2E0F01220
:100223000E529061A3E0F8E5E9585404600E120EF3
:100233002875E9FB906193E0A2E640F2EEA2E0921A
:10024300AF7F010204BFC0E074F2120460A2AFE406
:1002530033FED2AF9061A5E0F8E5BF5854046006C1
:1002630075BFFB120E6A80D4C3E498F8E499F912BF
:1002730002AC8026C3E49AFAE49BFBE920E7E91287
:1002830002ACE498F8E499F922C3E498F8E499F904
:100293001202ACE498F8E499F9C3E49AFAE49BFBFC
:1002A30022EB20E7CFE920E7E0B90010BB0008E824
:1002B3008AF084F8AAF022E4FBC8FA22EB70227BCE
:1002C30010C833C8C933C9335007C39AC3DBF2809C
:1002D300069A50012ADBEAC833F4C8C933F4C9FAD1
:1002E3002275F008E4C833C8C933C933C99AC99B16
:1002F3005004C92AC93BD5F0ECFBC833F4C8E4C9A0
:10030300FA22080808EAC0E0EBC0E086F0E7A4FAA6
:10031300180986F0E7A42AFA180986F0E7A42AFA4E
:10032300180986F0E7A42AFA1986F0E7A4FBE5F09A
:100333002AFA190886F0E7A42BFBE5F03AFA190824
:1003430086F0E7A42BFBE5F03AFA18180986F0E7E4
:10035300A4C5F02BFBE43AFA1908E7C5F0C6A426B6
:10036300F6E5F03BFBE43AFA1886F0E7A4F6E5F08D
:100373000826F6E43B08F6E43A08F6D0E0FBD0E0C2
:10038300FA22E4CFC0E0E4CEC0E0E4CDC0E0E4CCA8
:10039300C0E075F020E626F608E633F608E633F605
:1003A30008E633F6181818EC33FCED33FDEE33FE94
:1003B300EF33FFC3EC9709ED9709EE9709EF971910
:1003C3001919400FFFEC97FC09ED97FD09EE97FE15
:1003D300191906D5F0BFECF709EDF709EEF709EFA8
:1003E300F7191919D0E0FCD0E0FDD0E0FED0E0FF12
:1003F300222518C582C0E0E51934FFC583C0E0E5B6
:1004030018C3958224F810AF088583198582188054
:1004130008858319858218D2AFCEF0A3E520F0A317
:100423007808E608F0A3DEFAEFF0A3E58124FAF8F2
:10043300E608F0A3E608F0A3E608F0A30808E60838
:10044300F0A3E608F0A315811581D0E0FED0E0F813
:10045300158115811581E8C0E0EEC0E022C0D025EA
:1004630018C582C0E0E51934FFC583C0E0E518C3B1
:10047300958224F310AF0885831985821880088537
:100483008319858218D2AFC8F0A3E9F0A3EAF0A3D9
:10049300EBF0A37908E709F0A3D8FAECF0A3EDF0A9
:1004A300A3EEF0A3EFF0A3D0E0F0A3D0E0F0A3D04D
:1004B300E0F0A3E520F0A3E5F0F0A32285198385FE
:1004C3001882E0C0E0A3E0F9A3E0FAA3E0FBA3787D
:1004D30008E0F608A3DFFAE0FCA3E0FDA3E0FEA337
:1004E300E0FFA3E0C0E0A3E0C0E0A3E0F5D0A3E019
:1004F300F520A3E0A3F5F010AF08858319858218D2
:100503008008858319858218D2AFD082D083D0E04A
:10051300F8D0E032120BD0B90003020556E4900381
:1005230001788D791A8002F0A3D8FCD9FA7A8D7BF1
:100533001C90008678F979018015E493A3AD82AE0F
:10054300838A828B83F0A3AA82AB838D828E83D826
:10055300E9D9E775820B7583C874051208AF7582F4
:100563001675832674001208AF75F0108E1A8F1B50
:1005730085821F85831E851882851983E0CEA3E0BB
:10058300CF851F82851E83EBC9EAC8EDCBECCAC3B6
:10059300E833C8E933C9EA33CAEB33CBC3EA9EF580
:1005A3001DEB9FF51CB35004AB1CAA1DEC33CCED23
:1005B30033CDD5F0DAAE1AAF1B22D083D082ECC094
:1005C300E0EDC0E0E493A3FCE493A3FDED4C600DE8
:1005D300120695EC24FFFCED34FFFD80EFE493A3BA
:1005E300FCE493A3FDED4C600D120797EC24FFFC94
:1005F300ED34FFFD80EFD0E0FDD0E0FCE493A3C039
:10060300E0E493C0E022D083D082E9C0E0E493A386
:10061300C386F0C5F095F0F908E493A386F0C5F01E
:1006230095F0700BE493A3C3994005E9048002A3FA
:10063300E475F002A42582F582E5F03583F583D0D5
:10064300E0F9E493A3C0E0E493C0E0228519838535
:100653001882E0A3FEE0A3F5207808E0A3F608DF04
:10066300FAE0A3FFE0A3C0E0E0A3C0E0E0A3C0E0A2
:10067300E0A3C0E0E0A3C0E010AF08858218858343
:10068300198008858218858319D2AFD083D082025E
:1006930008B5C0E0C3E49396087401939618400F1D
:1006A300E49366700808740193661870007019A3C8
:1006B300A3C3E49396087401939618A3A3400DD0A3
:1006C300E0D0E0D0E00205F9A3A3A3A3A3A3D0E065
:1006D30022D083D082C5F0E493A3C5F0C395F0F58F
:1006E300F0E493A3C395F04005E5F0048001E475BD
:1006F300F002A42582F582E5F03583F583E493A324
:10070300C0E0E493C0E0227404800474028000CC4F
:10071300C0E0EDC0E0E518C39CCCAD1950011D103D
:10072300AF068C188D1980068C188D19D2AF12085C
:1007330031D0E0FDD0E0FC22C0E074F2120460A2EC
:10074300AFE433FED2AFE589A2E04006E589A2E13A
:100753005003122550758900758900C2C5EEA2E0C9
:1007630092AF7F010204BF74028000CCC0E0EDC0F1
:10077300E0E518C39CCCAD1950011D10AF068C18D1
:100783008D1980068C188D19D2AF12080FD0E0FD99
:10079300D0E0FC22C0E0C0F088F0E4936670080863
:1007A30074019366187000A8F0A3A3700BD0F0D067
:1007B300E0D0E0D0E00205F9A3A3D0F0D0E022D04E
:1007C30083D082CCC0E0E493A36006120871147056
:1007D300FAE493A360061209B11470FAD0E0FCE4C2
:1007E30093A3C0E0E493C0E022C0E074F21204607B
:1007F300A2AFE433FED2AFC2C0E5D1A2E4500312EC
:100803000C24EEA2E092AF7F010204BFCAC0E0E471
:1008130093A3C582CCC582C583CDC583F0A3C5820E
:10082300CCC582C583CDC583DAE5D0E0CA22CAC070
:10083300E0E0A3C582CCC582C583CDC583F0A3C543
:1008430082CCC582C583CDC583DAE6D0E0CA22C097
:1008530008C3E096F50808A3E096420808A3E096CB
:10086300420808A3E09645087001D3D00822C0E0EF
:10087300E493A3D39C5010E493A3C39C400AD0E019
:10088300D0E0D0E00207DFA3A3A3D0E022700908E1
:100893000808226016181818C6C333C608C633C61C
:1008A30008C633C608C633C6D5E0EA22C09FF59F03
:1008B300E473D09F22D083D082C09FE493C0E074BE
:1008C3000193C0E0740293F59F227404800A7403B9
:1008D3008006740280027401C0E0F4041208E8D0B8
:1008E300E0120B7B222518F58210AF08F518400C97
:1008F30015198008F51840021519D2AF85198322FE
:1009030000C0D0251810AF08F518500C0519800841
:10091300F51850020519D2AFD0D022C0E0C0D0E8FC
:10092300C0E0A8A8D2AFC2C7E8A2E792AFD0E0F870
:10093300D0D0D0E032BB0102E722C082C0838982DB
:100943008A83BB0003E08002E493D083D0822260D9
:1009530016080808C6C313C618C613C618C613C696
:1009630018C613C6D5E0EA22C3E0C696F608A3E08C
:10097300C696F608A3E0C696F608A3E0C696F62246
:100983002518F8E43519F9222518FAE43519FB225C
:100993002518FCE43519FD22251810AF08F5184079
:1009A3000C15198008F51840021519D2AF22C0E0C2
:1009B300E493A36C7009D0E0D0E0D0E00207DFA39A
:1009C300A3D0E022E066701008A3E066700A08A3D3
:1009D300E066700408A3E06622E76670100809E782
:1009E30066700A0809E76670040809E76622C3E02F
:1009F3009608A3E09608A3E09608A3E096A2D26522
:100A0300D03322C3E096F008A3E096F008A3E09663
:100A1300F008A3E096F022C3E697F60809E697F6F6
:100A23000809E697F60809E697F622C3E4939608C1
:100A3300740193960874029396087403939622E6BE
:100A430027F60809E637F60809E637F60809E63710
:100A5300F622E026F608A3E036F608A3E036F60809
:100A6300A3E036F622700422600D18C6C333C6080D
:100A7300C633C6D5E0F41822E493F608740193F65E
:100A830008740293F608740393F622E657F60809EE
:100A9300E657F60809E657F60809E657F622E05640
:100AA300F608A3E056F608A3E056F608A3E056F6C8
:100AB30022E056F008A3E056F008A3E056F008A39E
:100AC300E056F022E026F008A3E036F008A3E03673
:100AD300F008A3E036F022E647F60809E647F608F1
:100AE30009E647F60809E647F622E4C396F608E462
:100AF30096F608E496F608E496F622600D08C6A278
:100B0300E713C618C613C6D5E0F322C6F4C608C653
:100B1300F4C608C6F4C608C6F4C622C3E796080995
:100B2300E7960809E7960809E79622C3E09608A323
:100B3300E09608A3E09608A3E0962275D00075819D
:100B43003F75180175190300020517E6F008A3E6BF
:100B5300F008A3E6F008A3E6F022600C08C6C3136E
:100B6300C618C613C6D5E0F422E0F608A3E0F608DB
:100B7300A3E0F608A3E0F622CAC0E0E6F0A308DA91
:100B8300FAD0E0FA22E8F0A3E9F0A3EAF0A3EBF04D
:100B930022E0F8A3E0F9A3E0FAA3E0FB22ECF0A340
:100BA300EDF0A3EEF0A3EFF022E0FCA3E0FDA3E061
:100BB300FEA3E0FF22EAF0A3EBF0A3ECF0A3EDF039
:100BC30022E0FAA3E0FBA3E0FCA3E0FD22E5C75487
:100BD300F84401F5C77901222518F582E43519F5A2
:100BE3008322C2AF75D69F020000221208B8D7BC79
:100BF300051208B8A9BE051208B815E6051208B80B
:100C0300879A051208B8F49A051208B8AC9B051226
:100C130008B8229C051208B8369D051208B8C69E6E
:100C2300051208B82F9F051208B87E9F051208B851
:100C3300879F051208B8969F051208B8AC9F051246
:100C430008B8BF9F051208B8C89F051208B8DB9FF4
:100C5300051208B807A0051208B89EA2051208B825
:100C6300DEA2051208B81AA3051208B82EA30512AE
:100C730008B847A3051208B838A4051208B8EAA4AF
:100C8300051208B8FEA4051208B816D7051208B84D
:100C93003AD7051208B853D7051208B891D70512E9
:100CA30008B8C1D7051208B8EED7051208B854D84A
:100CB300051208B857D8051208B861D8051208B844
:100CC3006ED8051208B873C5051208B893C5051286
:100CD30008B8D2C5051208B8F0C5051208B80BC686
:100CE300051208B871C6051208B87DC6051208B802
:100CF300DAC6051208B8FEC6051208B8BFC7051242
:100D030008B8CCC7051208B8DDC7051208B8ABE4AC
:100D1300051208B8C3E4051208B8EFE4051208B8D1
:100D230045AF051208B89FB0051208B8ADB005125B
:100D330008B8C0B0051208B8D5B0051208B8EAB0B3
:100D4300051208B8FDB0051208B879B1051208B844
:100D5300DEB1051208B874B2051208B84DB3051216
:100D630008B85DB3051208B86CB3051208B878E388
:100D7300051208B89CE3051208B8C4E3051208B8C5
:100D8300ECE3051208B870CF051208B897CF051227
:100D930008B8B5CF051208B824D0051208B8A0C208
:100DA300051208B8B9C2051208B8C5C2051208B8B9
:100DB300D9C2051208B8F7C2051208B801C3051253
:100DC30008B80BC3051208B81EC3051208B8A4C39C
:100DD300051208B819C4051208B848C4051208B8A2
:100DE30096C4051208B8E5C4051208B800C5051273
:100DF30008B80AC5051208B81BC5051208B85EC5B0
:100E0300051208B838E5051208B8A689051208B80E
:100E1300D289051208B8EF89051208B8028A0512AB
:100E230008B81D8A051208B8778A051208B8A58A7A
:100E3300051208B8B58E051208B81390051208B844
:100E43004590051208B8A890051208B81E9205121D
:100E530008B84692051208B85B92051208B86B925F
:100E6300051208B8AB92051208B8ED92051208B83E
:100E7300FD92051208B849DC051208B863DC0512B7
:100E830008B88BDC051208B8A4DC051208B8C8DC66
:100E9300051208B8E6DC051208B8FDDC051208B82F
:100EA3002BDD051208B846DD051208B8D1E5051299
:100EB30008B80EBF051208B81EBF051208B825C032
:100EC300051208B859C0051208B87BC0051208B846
:100ED3009EC0051208B8BCC0051208B8F6C00512BA
:100EE30008B85BC1051208B89DC1051208B8E4C172
:100EF300051208B811C2051208B848C2051208B88D
:100F0300C3D9051208B8E1D9051208B843DA0512A6
:100F130008B8DDDA051208B8BDE1051208B89FDE8E
:100F2300051208B8E7DE051208B87FD5051208B820
:100F3300BFD6051208B8C1E5041208B8ADE904121A
:100F430008B8A2EB041208B8D4EC041208B8ADED4B
:100F5300041208B844EF041208B810F0041208B8D9
:100F630064F0041208B8B3D3051208B8D4D3051239
:100F730008B807D5051208B831D5051208B8A0CAB4
:100F8300051208B815CB051208B820CB051208B80E
:100F930041CB051208B826EE011208B829EE01125A
:100FA30008B857F3011208B8A9F4011208B80AF6F1
:100FB300011208B8EFF6011208B8C4F7011208B815
:100FC300B8F8011208B86CF9011208B89CF90112BB
:100FD30008B84FFB011208B895D1051208B8B5D16E
:100FE300051208B89AD2051208B883D3051208B8B7
:100FF30078D8051208B8AED8051208B8CAD80512B1
:1010030008B80CD9051208B81CD9051208B8B6D906
:10101300051208B8C0D9051208B80080051208B82F
:101023003A80051208B8A380051208B8C2800512D9
:1010330008B8DB80051208B87D81051208B805845D
:10104300051208B80E84051208B85F84051208B8A3
:101053008884051208B89584051208B80685051218
:1010630008B89485051208B8E285051208B81886F1
:10107300051208B87986051208B8A286051208B8C1
:101083001987051208B87587051208B8B2870512C3
:1010930008B8E987051208B8FB87051208B80D8858
:1010A300051208B82C88051208B83588051208B847
:1010B300F088051208B83C89051208B87A89051228
:1010C30008B802FB041208B842FC041208B865FC15
:1010D300041208B876FC041208B895FE041208B886
:1010E300B5FE041208B832CD051208B868CD051252
:1010F30008B8B0CD051208B809CF051208B8D5B2A3
:10110300041208B806B4041208B842B4041208B8AA
:10111300FCB5041208B826B6041208B89FB8041226
:1011230008B8DFB8041208B873BA041208B812BBBF
:10113300041208B86ABB041208B8FDBB041208B84D
:1011430037BC041208B879BC041208B8ECBD041209
:1011530008B86CBF041208B8A9C1041208B8D7C1F3
:10116300041208B803C2041208B80CC2041208B867
:1011730062C2041208B8F2C2041208B830C60412DC
:1011830008B8B2C6041208B8B0E6051208B8C6E635
:10119300051208B880FF021208B89DB3051208B8FB
:1011A300B3B3051208B857B4051208B896B40512BC
:1011B30008B8B3B4051208B8E4B4051208B831B5D9
:1011C300051208B865B5051208B8A0B5051208B828
:1011D30095B7051208B8BDE0051208B81CE1051261
:1011E30008B85AE1051208B89BE1051208B809BA14
:1011F300031208B815BA031208B877BA031208B86D
:1012030081BA031208B80EBB031208B84ABB031213
:1012130008B807BC031208B81ABC031208B882BC8A
:10122300031208B81ABD031208B85EBD031208B84A
:10123300DEBD031208B887BF031208B856C10312F4
:1012430008B8A7C2031208B825C4031208B8C6C455
:10125300031208B87DC9031208B879CA031208B883
:101263000DCB031208B832CB031208B8CFCB03124D
:1012730008B8ECCB031208B80CCC031208B872CC34
:10128300031208B88FCC031208B8BDCC031208B8F8
:101293003CCE031208B85DCE031208B8E3CE0312A6
:1012A30008B889CF031208B8D1CF031208B843D0C6
:1012B300031208B8D1D0031208B836D1031208B804
:1012C30097D1031208B845D2031208B8B2D2031259
:1012D30008B8EDD2031208B854D3031208B8AED439
:1012E300031208B841D5031208B8EBD5031208B8A6
:1012F3006ED7031208B807D8031208B86DD80312C3
:1013030008B874DA031208B81CDC031208B849DC05
:10131300031208B81FDE031208B8DADF031208B895
:10132300F8E0031208B83DFC011208B8AFFC011243
:1013330008B8BDFC011208B8CEFD011208B8A0D54B
:10134300021208B840D6021208B8C1D6021208B871
:10135300BFD7021208B83ED8021208B880D90212C9
:1013630008B821DA021208B8DEDB021208B8E5DC9D
:10137300021208B802DD021208B832DE021208B8FF
:101383004FDF021208B8F9DF021208B849E302126C
:1013930008B852E5021208B8DBE5021208B835E6D0
:1013A300021208B883E6021208B8F8E6021208B877
:1013B3007CE7021208B8B4E7021208B884EE0212FE
:1013C30008B8DFF0021208B8BBF1021208B808DB54
:1013D300051208B84CDB051208B897DB051208B8EC
:1013E3003AAA051208B8CBAA051208B8DBAB051256
:1013F30008B844AD051208B815AE051208B859AEC1
:10140300051208B894AE051208B8AEAE051208B8B6
:10141300B1AE051208B80080041208B85B8004124C
:1014230008B8EB80041208B85082041208B82D8360
:10143300041208B8A883041208B8FA83041208B87F
:101443006B84041208B8AF84041208B81E85041212
:1014530008B83685041208B8F787041208B88D88CF
:10146300041208B8C488041208B80D89041208B815
:10147300138B041208B8638B041208B83D8C041252
:1014830008B8768C041208B8958C041208B8E08C5E
:10149300041208B8008D041208B8C38D041208B8EA
:1014A3008E8E041208B8998E041208B80D8F041298
:1014B30008B8688F041208B8A88F041208B8DF9020
:1014C300041208B85793041208B88A93041208B890
:1014D3001A94041208B83F94041208B8C094041272
:1014E30008B8A595041208B8F295041208B85696E0
:1014F300041208B80A97041208B80D97041208B822
:101503001797041208B82197041208B824970412F5
:1015130008B89697041208B8CF97041208B8E29750
:10152300041208B80E98041208B83598041208B8C3
:101533005998041208B89498041208B80799041229
:1015430008B80A99041208B84B99041208B86599A7
:10155300041208B88099041208B8AF99041208B8A5
:10156300CF99041208B8189A041208B84F9A0412B3
:1015730008B84F9B041208B87E9C041208B89D9CBF
:10158300041208B8B59C041208B8C79C041208B822
:1015930083E5051208B89BE5051208B812A50512E4
:1015A30008B850A5051208B8E9A5051208B8F4A6AD
:1015B300051208B83CA9051208B8B9A9051208B85C
:1015C3002D93051208B87C93051208B83A950512B5
:1015D30008B8F496051208B83297051208B85F9850
:1015E300051208B86A99051208B88C99051208B84B
:1015F300D699051208B8579A051208B81EE50312C2
:1016030008B841E5031208B84FE6031208B898E694
:10161300031208B8F8E6031208B854E7031208B82F
:10162300A5E7031208B81BE8031208B8A0E80312E1
:1016330008B818E9031208B85BE9031208B884ED87
:10164300031208B8D5EF031208B808F0031208B85C
:10165300C5F0031208B8C8F0031208B8A1F10312C9
:1016630008B8D9F2031208B896F4031208B8BDF605
:10167300031208B8A1F7031208B825F8031208B833
:1016830062F9031208B885FA031208B8C4FA031200
:1016930008B878FB031208B8FA9C041208B89A9D9C
:1016A300041208B8069E041208B8219E041208B852
:1016B300AB9E041208B8F29E041208B819A00412D3
:1016C30008B85CA0041208B8D8A0041208B82BA16B
:1016D300041208B88AA1041208B838A2041208B880
:1016E300F3A4041208B81DA6041208B8A6A604128F
:1016F30008B889A8041208B82DA9041208B8CCA9FF
:10170300041208B82DAA041208B89CAA041208B837
:1017130000AC041208B8D9AC041208B865AE0412C0
:1017230008B874AF041208B801B0041208B86BB05B
:10173300041208B882B1041208B80FC7041208B81B
:101743007AC7041208B8C2C7041208B806C804123C
:1017530008B858C8041208B8B5C8041208B8F0C8C5
:10176300041208B88FC9041208B800CA041208B8D2
:1017730078CA041208B890CB041208B8B8CB041284
:1017830008B8C4CC041208B8D5CC041208B8EDCC00
:10179300041208B81BCE041208B849CE041208B8C4
:1017A30017CF041208B83BCF041208B859CF04125C
:1017B30008B873CF041208B895CF041208B86FD0D5
:1017C300041208B8C9D0041208B840D2041208B8E9
:1017D300A2D2041208B8C1D2041208B809D4041260
:1017E30008B888D4041208B8BFD4041208B803D5C3
:1017F300041208B8FDD5041208B80AD7041208B8B1
:1018030002D8041208B810D8041208B8FBD804127E
:1018130008B89DD9041208B80DDA041208B822DA00
:10182300041208B8C3DA041208B826FC031208B875
:10183300E1FD031208B8A4E0051208B8F5FE03128F
:1018430008B87BFF031208B8A2B7051208B8C0B7DF
:10185300051208B804B8051208B82AB8051208B862
:1018630051B8051208B869B8051208B881B805124D
:1018730008B899B8051208B83BB9051208B87DB97C
:10188300051208B89FBA051208B8A8BA051208B815
:10189300B1BA051208B8BABA051208B8C4BA051223
:1018A30008B802BC051208B87B7F001208B8897F0C
:1018B300001208B88E7F001208B82DC9051208B8A7
:1018C30084E6051208B84DE6051208B8D5FF0212E2
:1018D30008B8D0E6051208B8242E001208B87B2EEB
:1018E300001208B8E72E001208B8732F001208B8C8
:1018F3002930001208B87130001208B88A3000127B
:1019030008B8AD30001208B8CF30001208B80D3156
:10191300001208B85C31001208B88731001208B809
:10192300E531001208B88C32001208B834330012C3
:1019330008B8B033001208B87D34001208B8ED348B
:10194300001208B80935001208B83835001208B873
:101953004437001208B87238001208B89E380012D3
:1019630008B8D238001208B8F338001208B80239A0
:10197300001208B80D39001208B8BC39001208B8B3
:101983002C3A001208B8B73A001208B8BF3A00124E
:1019930008B82C3B001208B8683B001208B82E3C6C
:1019A300001208B8013D001208B8563D001208B8ED
:1019B300783E001208B85C3F001208B86D3F001271
:1019C30008B8DF3F001208B87640001208B8DB40C1
:1019D300001208B8CB41001208B8F041001208B851
:1019E3000C42001208B87F42001208B87C43001270
:1019F30008B88943001208B89243001208B8744526
:101A0300001208B89646001208B8A646001208B895
:101A1300D447001208B85848001208B89448001276
:101A230008B86E4A001208B82B4E001208B83F4E91
:101A3300001208B8494E001208B8534E001208B8F5
:101A43005D4E001208B8764E001208B8804E0012A0
:101A530008B8ED4E001208B8F84E001208B8204F2F
:101A6300001208B82B4F001208B8904F001208B8A4
:101A73009B4F001208B8BF4F001208B8E34F001283
:101A830008B85550001208B89E50001208B8BA5052
:101A9300001208B82B51001208B87751001208B889
:101AA300C051001208B8FE51001208B87F5200124C
:101AB30008B82653001208B8F554001208B85A554E
:101AC300001208B88856001208B8AE56001208B8BB
:101AD300F657001208B8305B001208B82E5D0012EA
:101AE30008B8F95E001208B8925F001208B8936153
:101AF300001208B84862001208B88162001208B8E0
:101B0300E762001208B8F162001208B81A65001201
:101B130008B85966001208B8B066001208B85B67C7
:101B2300001208B80B69001208B8586A001208B806
:101B3300786A001208B8CD6A001208B8CE6B00129A
:101B430008B8F66B001208B8556C001208B84D6D52
:101B5300001208B8C46D001208B8D76E001208B896
:101B6300456F001208B84470001208B89E72001244
:101B730008B8C772001208B82D74001208B8AF7500
:101B8300001208B80676001208B8B476001208B836
:101B93005977001208B8B277001208B870780012AB
:101BA30008B80279001208B86179001208B8A3795D
:101BB300001208B8D479001208B82B7B001208B8B9
:101BC3000080021208B83280021208B86B80021239
:101BD30008B82982021208B8FF82021208B85E838D
:101BE300021208B87484021208B8C084021208B83A
:101BF3004E87021208B8288A021208B86F8B0212A5
:101C030008B8078C021208B8138C021208B85C8C4F
:101C1300021208B89E8D021208B8948E021208B8F8
:101C2300BE8E021208B8148F021208B86D8F02120A
:101C330008B8E08F021208B81692021208B89893F7
:101C4300021208B88394021208B8CD95021208B89C
:101C53000598021208B8029B021208B8119B0212DF
:101C630008B8A59B021208B8509C021208B8939CAE
:101C7300021208B8DC9C021208B82C9D021208B8A4
:101C8300909D021208B8029E021208B81E9E02120C
:101C930008B8199F021208B896A1021208B8C8A280
:101CA300021208B8A0A3021208B822A4021208B8AC
:101CB30057A8021208B886A8021208B8E1A80212AF
:101CC30008B814A9021208B88CA9021208B8BFA94F
:101CD300021208B820AA021208B870AA021208B8A1
:101CE3003DAB021208B8F6AB021208B8BAAC021246
:101CF30008B834AF021208B896B0021208B8E7B1B8
:101D0300021208B80BB3021208B80EB3021208B8D5
:101D13003DB3021208B835B5021208B8F4B5021281
:101D230008B823B6021208B841B7021208B809B8B6
:101D3300021208B8C7B9021208B8F9B9021208B8F2
:101D43003BBA021208B83ABB021208B8ADBB021282
:101D530008B8D6BD021208B835BE021208B889BE4B
:101D6300021208B8B8C0021208B89BC1021208B820
:101D730057C2021208B86BC2021208B87FC202121D
:101D830008B8ACC2021208B8DCC2021208B897C481
:101D9300021208B8A9C5021208B8FEC5021208B893
:101DA30047C6021208B86EC6021208B836C7021236
:101DB30008B8DCC7021208B862C9021208B8A9C978
:101DC300021208B81BCA021208B870CB021208B874
:101DD30019CC021208B84DCC021208B865CC021215
:101DE30008B808CD021208B884CF021208B82CD163
:101DF300021208B84AD1021208B868D1021208B810
:101E030034D2021208B882D5021208B89F82011296
:101E130008B8D782011208B8D787011208B81D88FD
:101E2300011208B85389011208B8B889011208B819
:101E33002D8B011208B8378E011208B8608F01127A
:101E430008B87399011208B8039A011208B8ED9CF7
:101E5300011208B8FA9D011208B85D9E011208B874
:101E6300A59F011208B813A2011208B8A5A3011275
:101E730008B832A4011208B851A5011208B8DEA5AA
:101E8300011208B8E8A5011208B810A6011208B893
:101E9300B0A6011208B89BA7011208B868A80112DE
:101EA30008B885A8011208B8AEA8011208B8DBA8C3
:101EB300011208B822AB011208B8F1AB011208B83D
:101EC30030AC011208B8B2AC011208B853AD01121C
:101ED30008B885AD011208B8CCAD011208B8FFAD42
:101EE300011208B843AE011208B892AE011208B845
:101EF30097AE011208B8F3AE011208B837AF01125A
:101F030008B811B0011208B876B0011208B8DCB0F5
:101F1300011208B857B1011208B8BFB4011208B8CA
:101F2300C2B5011208B840B7011208B856BA011277
:101F330008B8F8BA011208B841BD011208B8FCBDCF
:101F4300011208B83BBE011208B813C0011208B849
:101F530030C0011208B839C0011208B842C00112DA
:101F630008B84DC0011208B86CC0011208B810C2FD
:101F7300011208B86DC2011208B877C2011208B87D
:101F83008FC2011208B8A0C3011208B8E9C3011235
:101F930008B8A3C4011208B8BAC5011208B88FC69D
:101FA300011208B8D6C7011208B8DAC8011208B876
:101FB300D3C9011208B8EBC9011208B822CA011229
:101FC30008B82CCA011208B837CA011208B855CA92
:101FD300011208B89DCA011208B8FBCA011208B859
:101FE30022CB011208B834CB011208B8E9CB011295
:101FF30008B822CC011208B844CD011208B897CD15
:10200300011208B87DCE011208B8A4CE011208B897
:1020130014CF011208B890CF011208B8ECD0011206
:1020230008B813D2011208B8D5D2011208B8A3D345
:10203300011208B861D4011208B849D5011208B8D1
:10204300F3D5011208B85BD6011208B810D70112F4
:1020530008B86CD7011208B8C4D7011208B88AD8D7
:10206300011208B8ADD8011208B868D9011208B82E
:102073008AD9011208B8EBD9011208B81BDC011286
:1020830008B814DD011208B8C0DD011208B8E1DF99
:10209300011208B82AE0011208B875E0011208B865
:1020A300D1E0011208B82FE1011208B853E101127F
:1020B30008B877E1011208B8ACE1011208B8D4E11D
:1020C300011208B819E2011208B86DE2011208B84A
:1020D300C6E2011208B8C0E3011208B85EE50112B6
:1020E30008B8A3E5011208B8CCE5011208B855E613
:1020F300011208B8C8E6011208B8D6E6011208B8FA
:10210300FAE6011208B850E7011208B86BE70112AA
:1021130008B826E8011208B852E8011208B895E891
:10212300011208B8F8E8011208B806EB011208B862
:1021330032EB011208B8EDEB011208B8D1EC011231
:1021430008B865ED011208B882F0041208B8BAF0B5
:10215300041208B8DBF0041208B81DF1041208B821
:1021630081F1041208B88BF1041208B89BF1041230
:1021730008B8D2F1041208B87BF5041208B843F783
:10218300041208B827F9041208B8C9F9041208B8E8
:1021930053FA041208B85080031208B8F9800312E6
:1021A30008B8D881031208B8E482031208B804837C
:1021B300031208B82684031208B8D685031208B898
:1021C3004386031208B81487031208B81A88031247
:1021D30008B89288031208B8CD88031208B8268974
:1021E300031208B86189031208B8AA89031208B850
:1021F3003E8A031208B8D48A031208B8A98B0312C3
:1022030008B87C8C031208B80A8D031208B8308D05
:10221300031208B85D8D031208B88E8D031208B837
:102223005B8E031208B86B8E031208B8BE8E0312BE
:1022330008B8CB8E031208B8D88E031208B8E18E03
:10224300031208B8458F031208B8A38F031208B806
:10225300EE8F031208B80990031208B830900312E6
:1022630008B84D90031208B85990031208B8EA91C0
:10227300031208B80392031208B87F92031208B836
:102283009292031208B8A292031208B8469303125B
:1022930008B8B294031208B8C595031208B8659636
:1022A300031208B86F96031208B8EE96031208B823
:1022B300FF96031208B83E97031208B86C970312EF
:1022C30008B83998031208B89098031208B8C99847
:1022D300031208B81F99031208B83D99031208B8EE
:1022E3008B99031208B8569A031208B8A49A0312DA
:1022F30008B8F19A031208B8749B031208B89E9B9E
:10230300031208B8D49B031208B8E39B031208B85E
:10231300429C031208B8BA9C031208B8FB9C031230
:1023230008B84B9D031208B8769D031208B8909D18
:10233300031208B8AA9D031208B87F9E031208B8B7
:10234300899E031208B8C49E031208B8D49E0312D0
:1023530008B8259F031208B8399F031208B85BA079
:10236300031208B870A0031208B803A1031208B837
:1023730077A1031208B81CA2031208B827A20312FC
:1023830008B88AA3031208B8A6A3031208B8F2A3D5
:10239300031208B860A4031208B892A4031208B881
:1023A300ACA4031208B80CA5031208B8ABA503121A
:1023B30008B8F6A5031208B849A8031208B8E1A89B
:1023C300031208B858A9031208B8B5AB031208B82A
:1023D300CDAB031208B8D0AB031208B8DCAB0312C1
:1023E30008B8F0AB031208B8F8AB031208B82FAC67
:1023F300031208B823AD031208B8ADAD031208B831
:102403002FAE031208B8AFAE031208B886AF03129B
:1024130008B8A8AF031208B841B0031208B89EB0B9
:10242300031208B8A1B0031208B810B1031208B818
:102433005CB2031208B86FB3031208B8FAB30312FD
:1024430008B80DB5031208B8D4B5031208B805B619
:10245300031208B82BB6031208B834B6031208B82F
:1024630063B6031208B813B7031208B8C3B703124D
:1024730008B836B8031208B8D9B8031208B84CB96B
:10248300031208B88BB9031208B8D4B9031208B8F9
:102493003CE0051208B8B8DF051208B8A1E405123C
:1024A30008B839E4051208B821E4051208B811E4A4
:1024B300051208B8E8FF011208B8F57F001208B842
:1024C30057E3051208B8B9E2051208B8A8E20512E5
:1024D30008B8A6FE021208B8CAFD021208B8E8FC42
:1024E300021208B847FB021208B806FB021208B82A
:1024F300DDFA021208B891FA021208B800FA0212C1
:1025030008B870F9021208B84EF9021208B8F6F8C2
:10251300021208B8B2F8021208B83FF8021208B85B
:1025230089BB051208B8DAF7021208B87BBB05129B
:1025330008B8FAE6051208B8F7E6051208B8F4E693
:10254300051208B8F1E6051208B8EEE6051208B858
:1025530060DE051208B80FDE051208B889F702120B
:1025630008B8B0F6021208B820F6021208B8D4F57B
:10257300021208B8FCDD051208B84FF5021208B8BC
:102583000AF5021208B8EEF4021208B88DF302122B
:1025930008B89BDD051208B85FF3021208B8877B01
:1025A300001208B82CF3021208B8B0F2021208B8ED
:1025B30076E5041208B814E5041208B8DFE404123F
:1025C30008B8ACE4041208B884E4041208B81AE4A6
:1025D300041208B8FCE3041208B8CDE3041208B8E7
:1025E30094E0041208B881DE041208B884DC0412F3
:1025F30008B804DC041208B8B2DB041208B879DDA9
:10260300051208B866DB041208B8F9DA041208B830
:10261300A0FE0300000080FBE47300000300200120
:102623009D820000000020019C8200000400420102
:10263300FA810000050042013A81000006004201D0
:102643004B800000070020019E820000100042031F
:10265300F81C000011002003C7180000120010032B
:10266300091D030000002103C81806000000100123
:10267300CA18050B000021010000050B0100210110
:102683000000050B000123010000050B01012301DC
:102693000000050B020123010000050B03012301C8
:1026A3000000050B040121010000050B05012101B8
:1026B3000000050B060121010000050B07012101A4
:1026C3000000050B080121010000050B0901210190
:1026D3000000050B0A0121010000050B0B0121017C
:1026E3000000050B0C0121010000050B0D01210168
:1026F3000000050B0E0121010000050B0F01210154
:102703000000050B100121010000050B110121013F
:102713000000050B120121010000050B130121012B
:102723000000050B140121010000050B1501210117
:102733000000050B160121010000050B1701210103
:102743000000050B180121010000050B19012101EF
:102753000000050B1A0121010000050B1B012101DB
:102763000000050B1C0120010000050B1D012801C1
:10277300000087000100631D35000400281D2500AB
:1027830002002C1D260002002E1D27000200301D12
:10279300280001003A1D290001003B1D84000400AC
:1027A3003C1D86000100401D2A000100411D2B0035
:1027B3000100421D2C000100461D2D000800431A94
:1027C3002E000100471D2F000100481D30000100AD
:1027D300491D310001004A1D320001004B1A33002C
:1027E30001004C1A340001004B1D360001004D1A44
:1027F300380001004C1D39000100451D8300020013
:10280300611D63000100591A64000100431D650046
:102813000100441D6D0001005A1A710008003B1AA3
:1028230066000100601D43000100511D44000200C9
:10283300521D45000100541D46000200551D47006E
:102843000800511A48000100571D4B000100581D94
:1028530004000100641DA1000100671D3700010091
:10286300661D88000100651D3C0001004E1A3D00F5
:1028730001004D1D49000200591D670001005B1A4C
:102883004D0002005B1D4E0001005D1D4F00020064
:102893005E1D3E000100501A510001004E1D520002
:1028A30001004F1D53000100501D540001004F1A39
:1028B30000000000000000013636010100010201A2
:1028C30000010301000104010606050200000701DF
:1028D30000340801000F090401010D0100FF0E0877
:1028E300000017020000190100FF1A0100011B017B
:1028F30000FE1C0100081D0200001F010001200151
:102903000001210200002301000F24020000260120
:10291300000127010008280200FF2A0100072B01FC
:1029230002402C0100002D0100012E0100012F01A6
:1029330000FF30010B1D310800003A0100083B0184
:10294300000F3C0100013D0100FF3E040000420472
:102953000000460400004A0400004E040000520434
:102963000000560400005A04000000002101000189
:102973000021020000012366000101236700020118
:1029830023680003012369000401216A0005012172
:102993006B000601212C010701212D010801212EC5
:1029A300010901212F010A012130010B012131010C
:1029B3000C0121C8000D0121C9000E0121CA000F1D
:1029C3000121CB00100121CC00110121CD00120106
:1029D30021CE0013012132011401213301150121FC
:1029E300CF001601213401170121D000180121D194
:1029F30000190121D2001A0121D30001037103013F
:102A03000301030103010301032203020301031072
:102A13000300030003000300030003000300034259
:102A23000300032403060300030003040312032526
:102A33000323032503230304030403000300030008
:102A4300034403000300032303000365032100354C
:102A530003810300030503000300030003000325B0
:102A630003230303047104020460041104700402C9
:102A73000402040104020410046104000414046346
:102A83000473047204620443040004130406040080
:102A930004000404041204000400040004000451AC
:102AA300046400000400040004440400040004005F
:102AB3000400046504000435048104640005040073
:102AC30004830400040300710030016000110070EE
:102AD3000031022003500480001000610000001444
:102AE30000630073007200620043000000130006DD
:102AF30000000000000400120000000000000000BD
:102B03000004000400370037003C024400000000CA
:102B13000000000000650000003500810000000592
:102B23000000008300000001017101010101011196
:102B33000101013101010101018001100161013B2A
:102B43000014006301730172016201430100011368
:102B53000106013D013500040112010001000100DD
:102B630001000104010401330133013C014401323A
:102B730001360000010001650100013500810100FB
:102B8300010501820183010001030271023001602A
:102B930002110270020102020202028002100261AB
:102BA300023A0041006302730272026202430200AE
:102BB30002130238000002000204021202000200A3
:102BC300020002000204020402370037003C024400
:102BD3000200023900000200026502000235028190
:102BE300020002050282028302000236000100068F
:102BF3000000000F000000000000000000000000C3
:102C03000003FFFF00000403FFFF0000FFFF0FF4BA
:102C1300010005C4040320000100000B00000000B4
:102C23000000000003010F0000000000000000008E
:102C33000000000000000000000000000000000091
:102C4300000000000000000000D2120E13D8120C86
:102C530012DE121413DE122013E4120C12DE12140D
:102C630013EA120C12F0120C12F6120C12FC120CD4
:102C73001202130C1208130C1200000000000000D3
:102C83000000000000000000000000000000000041
:102C93000000000000000000000000000000000031
:102CA30000000000000A0000000200000004000011
:102CB3000008000000100000002000000040000099
:102CC300008000000000010000000200000004007A
:102CD3000000080000001000000020000000400079
:102CE300000000DA16130062161F0068161F806EBC
:102CF300160100DA1602001A160300201604002635
:102D03001605002C16060038161100561614005C22
:102D13001615004A16FFFF000001481E06721E0822
:102D23006C1E0B8A1E10721B024E1E05601E07547A
:102D33001E0C301E0D3C1E64AA19FF000007ECFD9B
:102D4300FDFDECDCDCCCBCACAC9C9C8C7C7C6C6C6E
:102D53005C5C5C4C4C3C3C2C2C1C1C03EAF5E5D520
:102D6300D5C5B5A595958585757565655555454550
:102D73003535252515150500160F00000B150B021B
:102D83000002220F3300000E01030507090B0D0F8C
:102D930000020406080A0C0D5A6967426565416C16
:102DA3006C69616E6365303900034A49434E181AF2
:102DB30025050200393D3F373C3C362C442D30304D
:102DC30017181921301B1D1F30000119161816166C
:102DD30018230300303016181920231A1C1E300C38
:102DE3000E020B040B0A0708000F02040201010183
:102DF300010902E803000000BE040A00000E007F80
:102E0300000000E80309050404001E0803030A0C7C
:102E13002B10080C28FF00100903010C05081504EA
:102E23001EC082C0837900127034C082C083901A9E
:102E3300651268E8D083D082C3E09CA3E09D500D67
:102E4300EA240B122E73122E5360027901024205FB
:102E5300EA75F00BA4FAA8F075F00BEBA428FB902D
:102E63001A67E02AF8A3E03B8882F583E0540F2237
:102E7300F582E43B125B282274F71203F4890812EB
:102E830052371231DBACF075F00BE9A42CF9901A30
:102E930067E028F8A3E039F9E8FEE9FF7401650863
:102EA30060067402650870228A828B8312339174E0
:102EB3000265087021EA2403FA50010B1218FCE999
:102EC30070148E828F83E4F0800CEA2403FCE43BCD
:102ED3001233881218F68E828F83E0D2E7F0121530
:102EE30006024E3A74F41203F412346279008E82AD
:102EF3008F83E06078890A890B8063E50A75F00B9C
:102F0300A4FAA8F075F00BE50B122E5F7048E50AE2
:102F130075F00BA4F8AAF075F00BE50B1233A58E30
:102F2300828F83E085088285098312483E12330627
:102F3300EE2403FCE43F12301E1218F612503BE558
:102F43000AF0A3E50B124067D2E7F01215067901E8
:102F5300901A65123DFA050AE50A7002050B901AEC
:102F63006512622BC3E50A9AE50B9B408E02407102
:102F730074F51203F4EAFEEBFF750A01740B120BEE
:102F8300DB126D45EC4D6015EC125EF53D123470AD
:102F930079011218DEE508450960758023E50845C7
:102FA300096044125EF3350912347012301F12188F
:102FB300FCE96401701BEEFAEFFB1218E4E9F50A71
:102FC3008508828509831232FE7902AA08AB09803B
:102FD300111233891218FCE9640170347903EEFA93
:102FE300EFFB1218DE80298E828F83A3E064FE70CC
:102FF30003A3E0F4700B1233891218FCE964017027
:103003000CEEFAEFFB1218E4E9F50A8003750A00E7
:103013000239B5E50A2403FCE4350BFDE508240376
:10302300FAE43509FB2274F71203F4901A6512517E
:103033006BEA4B602FEA75F00BA4FAA8F075F00B5E
:10304300EBA428FBEAFEEBFF1210F2901A67125171
:103053006B901A67124F8A6012EEFCEFFD79001233
:1030630010268007901A67E4F0A3F0024E3AC0825C
:10307300C083EC4D60051211E880097C087D00795E
:1030830000121026024205C082C0837900EA4B6019
:10309300167800E8FCEA2C125243600479017808A0
:1030A30008E8C3940840EC024205C082C08379015A
:1030B300EC6A7002ED6B6011EA4B600BEC4D60073C
:1030C3001211E2E9F98002790002420574F7120352
:1030D300F474F312099BECFEEDFF851882851983C6
:1030E300E4F004120BDBEAF0A3EB1254DB12192019
:1030F3007403120BDBAC82AD83EEFAEFFB1218F60E
:10310300EEFAEFFB1218FC024E3574F71203F47457
:10311300F312099BECFEEDFF851882851983E4F019
:10312300EAFCEBFD7403120BDBAA82AB831218F6E5
:10313300AA18AB191219267401120BDB12484F8E11
:10314300828F8312512774FE68700374FF696004D1
:10315300790180027900024E3574F71203F4EAFE16
:10316300EBFF1218D8E9F5087401650870111231E4
:10317300C6F4FA88828983E05A4480F0121506A9BE
:1031830008024E3A74F71203F4EAFEEBFF750800E7
:103193008E828F83E0602A1218D8E9F508740165DE
:1031A30008701E1231C6FA88828983E05A70128E23
:1031B300828F83E04480FA88828983E04AF0121583
:1031C3000680BC124EE8F81231DB1234D2F8A3E0C9
:1031D30039F98E828F83E022A3E0F9E875F00BA41E
:1031E300F82274F41203F48A088B097C007D00EA48
:1031F3001230211218F6E50812332079008508826F
:10320300850983A3E064FE7003A3E0F460787E0085
:103213007F008065EEFAEFFB122E536057EEFAEF54
:10322300FBEA75F00BA4FAA8F075F00BEBA428FBEE
:10323300901A67E02AF50AA3E03BF50B850882851F
:10324300098312622A850A82850B83A3E06A7003CD
:10325300A3E06B701FE50A2403FAE4350BFB121895
:10326300FCE9640170061230161218F61233157950
:1032730001126A4F0EEE70010F901A6512622BC392
:10328300EE9AEF9B408E02407174F31203F48A08A6
:103293008B098A828B831232FEEA123320750C006B
:1032A300EA1230211218FCE9640170477E007F00A6
:1032B300803C1234C4FAA3E0398A82F583E0540FC8
:1032C30060271234C4F50AA3E039F50B1230161245
:1032D30011E2E964017012850A82850B83123306B9
:1032E300123315750C01126A4F0EEE70010F123472
:1032F300E140BFA90C7F0502064FA3A374FEF0A310
:1033030004F022A3124E26850882850983A3124561
:103313006E22E50812332AEEF0A3EFF02212332ACD
:1033230074FEF0A304F022240BF582E43509F5833F
:103333002274F51203F4EAFEEBFF8E828F831232BE
:10334300FE7C007D001233891218F6EEFAEFFB12B1
:1033530018D8E9F50A7401650A7027124E1F123353
:1033630099850882F58312339112301F1218FCE9F4
:103373006401700EE5082403FCE435091233881256
:1033830018F60239B5FDEE2403FAE43FFB22A3123B
:10339300623912456E22E875F00BA4F8AAF075F0B5
:1033A3000BE91234D8F508A3E039F5092274F212B7
:1033B30003F474E612099B123462750A017508005E
:1033C300750900750C00750D00851882851983E455
:1033D300F0EE2403FCE43FFD7403120BDBAA82AB83
:1033E300831218F6AA18AB19121926E96401701F83
:1033F300740B120BDB1234727401120BDB12623387
:103403007003A3E069604AA818A919880889097498
:103413000D120BDB12483DA312484F740E120BDB47
:10342300125127740D12098B121920E964017009D6
:10343300740D120983880C890D780C1208D5AC0819
:10344300AD09EEFAEFFB1218EA7402120903E9F56B
:103453000AEEFAEFFB12191AA90A741A02504DEA7E
:10346300FEEBFF12503F74FEF0A304F022F583122B
:103473006219F912503F12456E22C082C083780050
:103483007900800508E8700109901A65123E58E931
:103493009B5029E8FAE9FBEA75F00BA4FAACF07546
:1034A300F00BEBA42CFB901A67E02AFCA3E03B8C07
:1034B30082F583E0540F70CC7900800279010242D7
:1034C30005EEF8EFF9E875F00BA4F81234D222AA4E
:1034D300F075F00BE9A42AF9901A67E02822901AF4
:1034E30065124E26C3EE98EF9922C082C083902EB8
:1034F30021E49375F01CA4FCADF079FF7A217B06DF
:1035030012102602420574F71203F4E9FCEAFD7A6D
:10351300007B008010EB123B639C4008E0F8EDC396
:103523009840010A0B902E21E493F8EBC39840E5F1
:103533007B00024E3A74EC1203F474F312099B8A73
:103543000C8B0D8C088D09890AEC45096016AA08B5
:10355300AB0912196E8A0E8B0FAE0EAF0FEE4F60D2
:10356300030236367A0080010A902E2112617050D0
:103573000F12372B70F2742128FE740639FF800472
:103583007E007F00EE4F70030236DF902E0412366A
:10359300FC60257403650A60067404650A70197A71
:1035A3000479031219448A0E8B0F902E21E493F8A9
:1035B300902E04123715502D902DFE1236FC602CE0
:1035C3007401650A60067402650A70207A02790143
:1035D3001219448A0E8B0F902E21E493F8902DFE3E
:1035E30012371540077A007B000236F7851882856B
:1035F30019837401F0120BDBE50CF0A3E50DF0ACBD
:1036030008AD097403120BDBAA82AB831218F6AA66
:1036130018AB19121932740B120BDB1245678E8229
:103623008F83A3A3A3A3A3A3E41268E4AA0CAB0D03
:103633001220AC7800E50A6007C3940550027804B1
:103643008E828F83E50CF0A3E50D123A26A3A3E542
:103653000AF0E88E828F83A3A3A3A3A31264F65078
:1036630001097A027B001202A4123E33A31241BA6B
:10367300123E5FE50A605BC394035056901D4FE012
:103683007018902CA8780C120A7B123E0A120B4E6B
:10369300902CA8780C120A7B8027F5087509007412
:1036A300027808120A68123706120A7B90823E7863
:1036B30010120B6C780C7910120305123E0A120BD0
:1036C3004EEE2413123E0D120B4EEE241B1264ED2C
:1036D3008009123E16123301A3F0A3F07A04790095
:1036E300121944123A174005901D69E4F0121F8025
:1036F300EEFAEFFB740D024374E493F8740193F94B
:10370300E8492274A82508F582742C3509F58378D5
:103713000C22E493FA740193FBE8C39AF8E49BF94F
:10372300C3E50E98E50F9922EA123731F42275F0BA
:103733001CA4F8A9F0742528F582740639F583E0F2
:103743002274EE1203F474F312099BEAFEEBFF8C6E
:10375300108D11750800AA10AB1112196EEA4B7087
:103763000302385F8A828B83E06E7003A3E06F707D
:103773000302385F8A828B83A3A3A3A3E0C39405C8
:10378300400302385F8A828B83126A3DE060728A4B
:10379300828B83A3A3A3A3E0C394035064901D4F20
:1037A300E07021902CA87808120A7B123866120B5D
:1037B3004E902CA87808120A7BEA24131238691257
:1037C3000B4E8030F50875090074027808120A68F8
:1037D300123706120A7B90823E7808120B6C780C23
:1037E3007908120305123F50120B4EEA2413123FBD
:1037F30053120B4EEA241BF582E43BF583E4F0807D
:103803001B7508FE7509FF750AFF750BFF123866F5
:10381300120B4EEA2413123869120B4E7508007509
:103823000900750A00750B00EA240C123869120BA3
:103833004E8518828519837401F0120BDBEEF0A319
:10384300EFF0AC10AD117403120BDBAA82AB831241
:1038530018F6AA18AB19121932750801A908740DC4
:10386300026A35EA2417F582E43BF583780822746B
:10387300F61203F41219688A088B09A808A909E843
:1038830049601488828983A3A3A3A3E06009C39436
:10389300055004790180027900802F74F61203F435
:1038A3001219688A088B09A808A909E849601488CD
:1038B300828983A3A3A3A3E06009C394035004797B
:1038C300018002790080031209037F0202064F740C
:1038D300F61203F41219688A828B83E582458360AA
:1038E3000BA3A3A3A3E0700479018002790080DA1B
:1038F300C082C083EAFCEBFD7A007B00024202C077
:1039030082C0837C007D0002420274F51203F474CA
:10391300F312099BEAFEEBFF8C088D09C3EC94F8C4
:10392300ED94FF4004EE4F6065750A00801974FF43
:103933006508700474FF6509600B12702E7004A390
:10394300E06509603B050A902E21E493F8E50AC37C
:1039530098503BE50A12372C60EBEE4F60D01239DA
:103963009C120BDB1254D712192CE960D874031282
:103973000BDBAC82AD83EEFAEFFB1211E2E960C51B
:10398300E50A75F01CA4F8A9F0123B5A80047A00EA
:103993007B00740D120903801B85188285198374BB
:1039A30001F0742328F582740639F583124E2674C8
:1039B3000B22A90A7F0302064F74F41203F474F373
:1039C30012099B75080012196E8A0A8B0BAE0AAF97
:1039D3000BEE4F6025851882851983123A2412391C
:1039E300AF120BDB1254D71219147C1C7D0079FF24
:1039F300EEFAEFFB1210267508017A04790012190A
:103A030044123A175009901D697401F0121F80A9DE
:103A13000802406C902E21E493F8C3EA98EB9400DB
:103A2300227401124842A3A32274F71203F4E9FE9D
:103A330074FE6A700374FF6B7C00700380240C12A5
:103A43003A8F501EEC12372C60F4123C297003A3FA
:103A5300E06B70EA800BEC123AA46019E064036037
:103A6300140C123A8F501EEE60ECEC123A9960F18E
:103A7300C3940550ECEC75F01CA4FCADF01275A4D6
:103A830012622B80047AFE7BFF024E3A902E21E4D1
:103A930093F8ECC3982275F01CA4F8A9F0123738F8
:103AA3002275F01CA4F8A9F0123738640122121908
:103AB30080024205C082C083790180F274F0120350
:103AC300F48A0A8B0B7A0479011219448A0C8B0D40
:103AD300EA450D6040EA2AFAEB33FB1210F28A083A
:103AE3008B09AE08AF09EE4F60267AFE7BFF1219F1
:103AF3008674FE6A700374FF6B601E8508828509F5
:103B03008312516BE5082402F50850E2050980DEB3
:103B1300750C0080047E007F00850A82850B83E597
:103B23000CF0EEFAEFFB023DF0C082C0837C008014
:103B330009EA24FF1AEB34FFFB0C123A8F5011EC05
:103B4300123B63940550F2EA4B70E6123B5A800431
:103B53007A007B00024205742128FA740639FB229D
:103B6300123731C32274F71203F474F312099B7EE4
:103B730000807DEF75F017A4F8A9F0123C1A1262C9
:103B83002BEE75F01CA4F8A9F0123C297003A3E0F6
:103B93006B603DEF75F017A4F8AAF0EAF9123C1A2E
:103BA30012484F7401120BDBE0687003A3E06960F5
:103BB3001FEF75F017A4F8EAF9746F28FC7408393D
:103BC300FD7403120BDBAA82AB831211E2E96013CB
:103BD300EF75F017A4F8A9F0746D28FA740839FB8F
:103BE3001220B80F902E14E493F8EFC39840840E7C
:103BF300127591501FEE127B05F47003A3E0F4607D
:103C0300EE12399C120BDB1254D712192CE960DF28
:103C13007F0080D0024E35123C1E22746D28F5823F
:103C2300740839F58322127B106A2274F41203F4A8
:103C330074F312099B7E0080389082767808120B09
:103C43006CEE75F01CA4F8A9F0743428F5827406A0
:103C530039F58378081209C76016908246780812EE
:103C63000B6CEE75F01CA4F8123CF67808120AC728
:103C73000E127591507AEE123A9960F4C394035080
:103C8300EF123CF6120B94E8494A4B70AC901D4E70
:103C9300E06401702D901B6D124F8A6025EE75F064
:103CA3001CA4F8A9F0742128F8740639F9123D4CC4
:103CB30012070A88828983123DE112261B740412BB
:103CC30009038518828519837401F0EE75F01CA42D
:103CD300F8A9F01239A5120BDB1254D712192CE9EB
:103CE300608E7403120BDBAA82AB8312197A808075
:103CF30002406C743828F582740639F5832274F611
:103D03001203F41219688A088B09A808A909E8495B
:103D1300603288828983A3A3A3A3E06023C39403AF
:103D2300501E123D4C120BACE82417F582E439F512
:103D330083120BA0E8241BF582E439F5837401F0A8
:103D43007901800279000238CDE82413F582E43941
:103D5300F5832274F01203F4EAFEEBFF901B671263
:103D63004F8A6072901B6D124F8A606A901B7112AA
:103D73004F8A606212741D12261BE97059901D4F01
:103D8300E0700A902CA87808120A7B8028F5087541
:103D9300090074027808120A681275FF742C1273F2
:103DA300FE7808120A7B90823E780C120B6C78081E
:103DB300790C12030578081208CD123DDB12261B7D
:103DC3007404120903E96401700C8E828F83A3A328
:103DD30012740B12261B80158E828F83A3A3125B92
:103DE3002A901B6D12741522740D1209037F0802A9
:103DF300064F1268ECEC22E0F50AA3E0F50B22E48F
:103E030093F8E508C39822EE2417F582E43FF5837F
:103E1300780C22123E2974FEF0A304F0A3F0A3F061
:103E2300124A4C74FE22EE2417F582E43FF58322F6
:103E3300E88E828F83A3A3A3A3A3A3A3A3124DFA04
:103E43007401124DFAA374AAF0EE2410F582E43F34
:103E5300F583E4F022125B2AC3E89A22A3F01250FE
:103E63003FE4F0EE240CF582E43FF583E4F0A3F0A5
:103E7300A3F0A3F02274F01203F474F312099BEA83
:103E8300FEEBFF7A027901121944EA8E828F83F0E6
:103E93007003023F4375F00CA4FAABF01210F28AE0
:103EA300088B09EA45097003023F49AE08AF09755B
:103EB3000A00801C90824612070AEEFAEFFB1210EA
:103EC300B074041209038A0C8B0DAE0CAF0D050AF6
:103ED300902E21E493F8E50AC398506AE50A123A52
:103EE300A46005E0640270E612399C120BDB1254E5
:103EF300D712192CE960187403120BDBAC82AD8363
:103F0300EEFAEFFB1211E88A0C8B0DAE0CAF0DE548
:103F13000A75F01CA4F8A9F0743C28F58274061203
:103F2300727C6401708E123B5AEA2413123F5312BF
:103F33000B6C123F5012096B780C1208CD023EBD78
:103F4300750800750900AA08AB09023DEBEA2417BE
:103F5300F582E43BF583780C22C082C083901A7407
:103F6300745AF0A3741EF002420574F71203F4EAC4
:103F7300FEEBFF901AE1E06408601FE06404601A3E
:103F83008E828F83E0540364017044124EE4F8A3DD
:103F9300E0F5838882E0640670358E828F83A3A365
:103FA300E064FE7003A3E0F460258E828F83A3A3F5
:103FB3001268F57003A3E0697008EE24151268DC3B
:103FC3006005121F148003121F1AE9F50880037598
:103FD30008C2EEFAEFFB1210F802318274F41203F6
:103FE300F48A088B098A828B83E0FAA3E0F8EA2833
:103FF300FAE43400FB1210F28A0A8B0BAE0AAF0B01
:10400300EE4F605A850882850983E0FC7D007900C4
:104013001210268E828F831232FD121F508E828FD2
:1040230083A3A3A3A3EAF0A3EB124067F8EE28F857
:10403300E43F123475850882850983A3E0C0E0124A
:1040430064E0D0E0F0121F62EE240EF582E43FF547
:1040530083E91247CAE0C0E0124539D0E0F0EEFA36
:10406300EFFB800A1247C2E022740D1209037F049A
:1040730002064F74F41203F474E812099B8A088B46
:10408300098C0A8D0BE9FE901AE1E064046005E0F7
:104093006408700479C2803CA37808120B4EEE903A
:1040A3001AE81241BF1210268518828519837808F1
:1040B300120B4E7405120BDBEEF07404120BDB745F
:1040C30001F07407120BDBE4F0901AE1740212544E
:1040D300DB1218727418809374F41203F474E812E8
:1040E300099BEAFEEBFF901A69124F8A60030241B3
:1040F300B57A077B001210F2901A6912516B901A6D
:1041030069124F8A70030241B18E828F83120B941E
:10411300901A69E0FCA3E0F5838C82120B88EE24ED
:1041230004F50AE43FF50B850A82F583E0C0E090CD
:104133001A69125AFFA3A3A3D0E0F0EE2405F508F1
:10414300E43FF509850882F583E0C0E0901A69121F
:104153005B10D0E01241BAE0C0E0901A6912621914
:10416300C82406F582E438F583D0E01241BF12106B
:10417300268E828F83120B94851882851983120BE6
:1041830088850A82850B83E0C0E07405120BDBD0BF
:10419300E0124067C0E07404120BDBD0E0F0740758
:1041A300120BDBE41254DB121872E9F98006791062
:1041B300800279010240D7126EBFA322F07C187DE2
:1041C300007900AA18AB1922C082C083901A691221
:1041D3004F8A6010901A6912622B1210F8901A69B4
:1041E300E4F0A3F0121E8412205E024205C082C0D6
:1041F30083901A6FE070031216501219E0800312B5
:104203001974D083D0820208B574F01203F4901AA3
:104213006FE0901D68700FE0600579001214D09074
:104223001D68E4F0804AE064016008901A6FE0F9C9
:104233001214D0901D687401F0901A6FE0F460308E
:10424300E0F50CE4F50DF50EF50FF09082327808E9
:10425300120B6C780C7908120305780C1208CD7ACE
:10426300807B00901B2CE0F91211B2740412090335
:104273007A687B1D794112185A023DF074EC1203DF
:10428300F474E712099B8A0C8B0D8C0E8D0FE9FFDA
:104293007E007508018E098E0A8E0B901AE1740157
:1042A300F07C187D00790012098B1210267401121C
:1042B3000BDB780C120B4E7406120BDBEFF074055C
:1042C300120BDB7403F07408120BDBE4F0850C10A3
:1042D300850D11850E12850F1378107908120A8E39
:1042E300E51045114512451360010E74017808125B
:1042F3000890E5084509450A450B70D1AA18AB1982
:10430300795A121854851882851983E0F508E4F563
:1043130009F50AF50B8E0CF50DF50EF50F780879F6
:104323000C12030590823A780C120B6C7808790C06
:10433300120305908232780C120B6C7808790C12F8
:10434300038512455A7A007B04901B2CE0F9121165
:10435300BE78081208CD7A007B04901B2CE0F9127A
:1043630011B27404120903740112098B12187274C6
:10437300191209037F0C02064F74F71203F47C0130
:104383001219F8024E3A74F71203F47C0080F174A8
:10439300F01203F474FD12099BEAFEEBFF890A8C09
:1043A3000B1268E5121E788A088B09EA4509700525
:1043B30079CA0245348A828B83A3A3A3A3A3A3A3AD
:1043C300E064FE7003A3E0F4700579C30245341280
:1043D3001F508A0C8B0DA80CA90D850882850983B3
:1043E300A3A3A3A3A3A3A3E0687003A3E069700539
:1043F30079C2024534901ADF12484F850882850935
:1044030083E0687003A3E0696009850882850983F6
:1044130012468F901ADF12622B1220BE8508828506
:104423000983A3A3A3A3A3A3A3A3A3A3E004901A11
:10443300F212467B1211E87401120BDB7402125460
:10444300DB121FB68A0C8B0DAE0CAF0DEE4F700353
:1044530002452B1254E17406F0A3A882A983901A93
:10446300CC1266161264EAF0121F4A125162EE244D
:10447300131264ED124E067440F0A3E41245431286
:104483004567124539E50BF0EEFAEFFB1219BCE96B
:10449300FE600302452D901AE1740912454312464A
:1044A30085901AD4E0650A6003E50AF07AD57B1A91
:1044B300794B12185A7ADF7B1A795012185A7AD428
:1044C3007B1A79E112185A7AD27B1A795312185A45
:1044D30012455A901D3012622B121F7A12454CE47A
:1044E300F50EF50F780C1208CD7A017B00901B2C8A
:1044F300E0F91211B874041209037A007B04901BCB
:104503002CE0F91211BE12454C7402780C1208907B
:10451300780C1208CD7A007B04901B2CE0F9121161
:10452300B2740412090380027E109018D4E4F0EEF2
:10453300F97403023DEDEE2411F582E43FF5832285
:104543001247CEA3A3A3A3A322901D30E0F508A393
:10455300E085080CF50D22901D2E124E26901A6B45
:1045630012456E2212651512456E22E8F0A3E9F09A
:104573002274F61203F474E512099B8518828519D7
:1045830083ECF0A3EDF0EAFEEBFF8909901AE1E07A
:1045930064046005E06408700579C20246767426F7
:1045A300120BDBE064FE7003A3E0F4700579C30231
:1045B30046767C197D007900740212098B1210264D
:1045C300901AE174031254DB795012185A742612AC
:1045D300098B794B12185A85188285198312468FD5
:1045E300E509901AD4F07426120BDB124685742564
:1045F300120BDBE0F508901ACC12467B1211E8741B
:10460300CE55084480C0E0741A120BDBD0E0F0747E
:1046130028120BDBE004901AF2F07417120BDB7410
:1046230002F07426120BDB12484F740F120BDBE8F7
:10463300F0A3E91248487418120BDB125127740DCA
:10464300120BDBE509F0740A120BDBE4F0901AE7B6
:10465300740FF07AE77B1A795412185A901AE67499
:104663000FF07AE67B1A794712185A740212098BF3
:10467300121860741B0238CAF0EEFCEFFD7AF37B6C
:104683001A22124E26901AD512456E2212729612D3
:10469300456E2274F71203F4EB901AE9F0121E66CA
:1046A300024E3A74F61203F474E912099B8A088BDA
:1046B300097E008A828B83A3A3A3E0C0E074061261
:1046C3000BDBD0E0F08A828B83A3A3E0C0E0740805
:1046D300120BDBD0E0F07409120BDB7401F08A8259
:1046E3008B83124F8A600D8A828B8312622B12187E
:1046F300FCE970357407120BDBE4F0121F4A7404F3
:10470300120BDB12516B901AE1E06404700E121F5E
:10471300567402120BDBEAF0A3EB804E7402120B09
:10472300DB74FDF0A374FF8041AC18AD19850882DA
:1047330085098312622B12190E850882850983A3CA
:10474300A3A3A3E070317407120BDB740112484872
:104753007402120BDB1251278508828509831248E4
:104763004F7404120BDBE8F0A3E9F0740212098B17
:10477300121F9EE9FE8041124849740A120BDB1294
:1047830051277414120BDB74011247CAA3E0C0E073
:104793007415120BDBD0E0F07416120BDBE4124736
:1047A300C21268E8740C120BDBAA82AB831211E805
:1047B300740A12098B1214E8EEF974170238CAF05E
:1047C300850882850983221247CE221247C2A3A3FA
:1047D3002274F71203F474F812099BEAFEEBFF79D3
:1047E30000901AE1E064086005E0640470478518EE
:1047F3008285198374FDF0A374FFF0121F4A7402BB
:10480300120BDB12516B7405120BDB12483DA3E054
:10481300C0E07404120BDBD0E012483EE0C0E07449
:1048230006120BDBD0E0F07407120BDBE41254DB4F
:10483300121F9EE9F97408024E37E412484222F02F
:104843008E828F8322F0851882851983124E262249
:104853007F0702064F74F41203F474F912099B8A5A
:10486300088B098C0A8D0B851882851983780812A9
:104873000B4E7404120BDBE9F07405120BDBE4F04E
:104883007406120BDBE41254DB1219CE74070240D8
:104893006E74F51203F48A088B098A828B83126A79
:1048A30052EE4F7003024A45901A90124F8A6017D6
:1048B3008A828B83A3A3E0F9EEFAEFFB901A91E0CF
:1048C300F583888212261B8E828F83A3A3A3A3A3BF
:1048D300A3A3A3A3E0640260030249AF8E828F8384
:1048E300A3A3A3A3A3A3E0540270030249D385089F
:1048F30082850983A3A3E064E970030249D3850891
:1049030082850983A3A3E064CD70030249D385089C
:1049130082850983A3A3E064F070030249D3EE24E4
:104923000D124DDB6028EE24131268DC60208E82AA
:104933008F83A3A3A3A3A3A3A3A3A3A3124A641232
:104943001FCEE9701D7A307B011215A88014901DCB
:1049530051E0048E828F83A3A3A3A3A3A3A3A3A342
:10496300A3F0850882850983A3A3E0701F750A005D
:1049730080097A367B011215A8050A850882850904
:1049830083A3A3A3E0F8E50AC39840E6EE240A1242
:104993006177C0E0124A48D0E0124DF67404F090FB
:1049A3001D5212650FE8124A561210868E828F83AB
:1049B300A3A3A3A3A3A3A3A3A3E0640260128E8271
:1049C3008F83A3A3A3A3A3A3A3A3A3E064067072EB
:1049D3008E828F83A3A3A3A3A3A3E0A2E050638546
:1049E3000882850983A3A3E0F9EEFAEFFB121D7C8D
:1049F3008E828F83A3A3A3A3A3A3E054FE124A64CE
:104A0300121FCEE9850882850983A3A3702AE0706B
:104A1300237A2F7B011215A87E00850882850983DE
:104A2300A3A3A3E0F8EEC39850187A367B011215BE
:104A3300A80E80E67A318005E070077A2D7B01129B
:104A430015A80239B7124A4C22EE2413F582E43F2B
:104A5300F58322F0A3E9F07A207B00901B2CE0F988
:104A630022124842127415125B2A2274EC1203F4C8
:104A730074BD12099BEAFEEBFF8C108D11750C00BF
:104A8300750E00AC18AD19121C92740D120BDBE0FD
:104A930070087410120BDBE060148518828519838B
:104AA300E0A2E6500E12621E121FCEE960057A35AF
:104AB300024BCF851882851983E0540C640470057A
:104AC300750D018003750D00E0A2E5503D750E01E3
:104AD300E50DA2E04034121F50124E117003A3E003
:104AE300697005124DD8706B121F50124E1170036E
:104AF300A3E0696015124DD87010126902AC18ADAD
:104B030019121D58E96003024BCD124DD8702C8544
:104B13001882851983E0A2E650217401120BDBE0B1
:104B230054037017851882851983E0540C640C6054
:104B33000AE0540C64086003750C0185188285191A
:104B430083E05403F874026870191268FE121CA4FF
:104B5300024DD312621E124E1F7415120BDB12513B
:104B630027809A7401687047E50CA2E0500B124D40
:104B7300D870061268FE121C98741A120BDBE51823
:104B8300F0A3E519124E1E7417120BDB1251278E78
:104B9300828F83A3A3A3A3A3A3E0C0E07419120B82
:104BA300DBD0E0F0741712098B121BD2024DD3E84D
:104BB3006003024DD3901AC9E0640170178E828F8F
:104BC30083A3A3A3A3A3A3E0700A7A347B011215E2
:104BD300A8024DD37442120BDB7402124E1E743AB8
:104BE300120BDB124DE5E054807003024CEF74248A
:104BF300120BDB7402124DF612484F741C120BDBBE
:104C03001251277403120BDBE0C0E07425120BDB97
:104C1300D0E0F07402120BDBE0C0E07426120BDB71
:104C2300D0E0F0901ADF12484F7427120BDB1251B9
:104C3300277406120BDB12484F7429120BDB125137
:104C4300277408120BDB12484F742B120BDB125123
:104C5300277410120BDBE0F8742D120BDBE8F0A3C2
:104C6300E4F0740E120BDB12484F742F120BDB129D
:104C73004DE512484F7431120BDB124E02E0C0E0D7
:104C83007433120BDBD0E0126ECEC0E07434120B1F
:104C9300DBD0E0F01268D9C0E07435120BDBD0E052
:104CA300F07411120BDBE0C0E07436120BDBD0E0C2
:104CB300F07413120BDBE0C0E07437120BDBD0E0AF
:104CC300F0EE24231268DCC0E07438120BDBD0E072
:104CD300F0EE24251268DCC0E07439120BDBD0E05F
:104CE300F0741C12098B121CAA024DD37457120BB9
:104CF300DB7808120B6CE50DA2E04003024D8BEE4E
:104D0300240F1268DCC0E07412120BDBD0E0F090C9
:104D13001A92124F8A7003024DD3121F508A128BBC
:104D230013A812A913743A120BDBE0687003A3E013
:104D3300696003024DD3EE24231268DCF50D780D70
:104D43001208D9124DEC12070E78081208CDE50EA1
:104D5300F50878081208D98E828F83A3A3A3A3E052
:104D6300F50878081208D978101208D5A90C740B25
:104D7300120993744512098B901A9212622F12260C
:104D83001B740B1209038048E50CA2E0500612685D
:104D9300FE121C981268D9F50C780C1208D9780801
:104DA3001208CDE50EF50878081208D97810120814
:104DB300D5901ADF12070EEE24121268DCF9744440
:104DC300120993740A12098B121D88740A120903BB
:104DD3007443024374EE2421F582E43FF583E054E7
:104DE300802212456E124DEC22EE2421F582E43F1F
:104DF300F58322124DFA22126EC3A3A3A3A322E8C2
:104E0300F0A3E9F0EE240FF582E43FF583228A084C
:104E13008B09A808A909124EE86822F012503F1224
:104E23004E2622126219F92274F71203F41214B2F5
:104E33008005740D1209037F0102064F74F71203F4
:104E4300F41214C480F1C082C0831214BE0242055E
:104E530074F71203F41214CA80DD74F71203F474A6
:104E630009120BDBE0F50878081208D91214DC7478
:104E73000180C1C082C0831214E802420574F61295
:104E830003F4EAFEEBFF901ACCE0A2E150498E82D4
:104E93008F83A3A3A3A3A3A3A3A3A3A3E0640160FA
:104EA30036121F568A088B09A808A9098E828F8398
:104EB300E0687003A3E069601E124EE464016017AA
:104EC3008E828F8312622B12195CE9600A8E828FA5
:104ED3008312622B121F0EEEFAEFFB1214EE02384E
:104EE300CD124EE822125043E02274F71203F4125B
:104EF30014F4024E3A74F71203F4EAFEEBFF890846
:104F03007401650870147900121B3C902E0DE49314
:104F1300FC7900EEFAEFFB121AB2024E3A74F71262
:104F230003F41214E2024E3A74F41203F474F91205
:104F3300099BE9FE8A088B098C0A8D0B9019811253
:104F43004F8A602BEE851882851983F07401120B4A
:104F5300DB7808120B4E7413120BDB12484F7405E7
:104F6300120BDB1254D790198112622F12261B02E7
:104F7300488FE50E75F006A4F8AAF0EAF974F9284B
:104F8300F582740A39F583124E26E8492274F71222
:104F930003F4121500024E3A74F71203F4901D6BDA
:104FA300E0F97800800B12524B540D640170011923
:104FB300081251B85003E970ED024E3A74F7120328
:104FC300F4901D6CE0F97800800B12524B548D6401
:104FD30081700119081251B85003E970ED024E3A7D
:104FE30074F21203F4890BE975F006A4A9F0240FF7
:104FF300F508E439F509E5082AFAE43509FB121046
:10500300F28A0C8B0DAE0CAF0DEE4F6025AC08ADE4
:1050130009790012102612503BE50BF0EE2508F833
:10502300EF3509F98E828F83A3A3A3A3A3A3A312AE
:105033005125EEFAEFFB801512503F221250432206
:10504300EE240BF582E43FF583221209037F060267
:10505300064F74F61203F4EAFEEBFF121A88E9F81E
:10506300901D6AE0F9E8C3994009901A7812622BFF
:10507300121A8EEE2402F8E43FF988088909901A7F
:105083007A126616901A7AE004F0EEFAEFFB121A1F
:1050930094850882850983E0026745C082C08379CD
:1050A30000901A7880010912622B8A828B83E58231
:1050B300458370F202420574F71203F4EAFEEBFF34
:1050C300EE4F605B901A78124F8A6053888289830F
:1050D3007A007B00EE65827003EF65836013AA821A
:1050E300AB8312484F88828983E582458360308091
:1050F300E3901A7812484FEE687002EF698E828F40
:1051030083700812484F901A788003127403125167
:1051130027EEFAEFFB121C02EEFAEFFB1210F80275
:105123004E3AA3A312456E22C082C083901A7880A0
:105133000488828983124F8A600A88828983123D98
:10514300F54D70ED8A828B83E4F0A3F0E8496006A5
:10515300888289838003901A7812516B024205EE8C
:10516300241AF582E43FF583EAF0A3EBF022125B05
:105173002AEA4B2274F71203F4901A7880048A8285
:105183008B83125171602778008001081251B85047
:10519300EDE875F006A4FCADF0EA2CFCEB3DFDEC6C
:1051A3002413F582E43DF583E06970DF80047A001F
:1051B3007B00024E3A12523CFCE8C39C2274F71265
:1051C30003F4E9FE7D0080010D125237EDC39850C0
:1051D30023ED75F006A4F8AFF0EFF912522D70E845
:1051E300ED75F006A4F812526E4CF0E8240FFAE4C1
:1051F30039FB80047A007B00024E3A74F61203F402
:10520300E9FEEAFF121A9AEA4B601C7C008010EC5C
:1052130075F006A4F8A9F012522D7002EFF00C12EB
:105223005237ECC39840E80238CD12526624131269
:1052330052776E2212523CF822EA240B1252432276
:10524300F582E43BF583E022E875F006A4FCADF0BB
:10525300EA2CFCEB3DFDEC2414F582E43DF583E000
:1052630022EFF9EA28F8EB39F9E822125264241400
:1052730012527722F582E439F583E02274F61203A1
:10528300F4121BA87A008016EA75F006A4F8A9F0B8
:10529300126646E4126749F0A3126D2FF00A902EAE
:1052A3001612617040E27A00801C8A087509007446
:1052B300037808120A68125317A374FEF0A30412AA
:1052C3006506A3E4F00A902E1512617040DC7900A4
:1052D300801A890875090074037808120A6874959E
:1052E300127601740B1273FE1232FF09902E08120C
:1052F3006D2840DE902E1DE493901A7CF09082324C
:1053030012070A7A107B00901B2CE0F91211B87473
:10531300040238CA74552508F8740B3509F98882D4
:1053230089832274F01203F474F512099B8A088BA3
:1053330009890A8C0BE9A2E050147508FC7509FF72
:10534300A2E15005D2E40253E7D2E30253E7121B72
:10535300908A0C8B0DA80CA90D901AD2E0687003EB
:10536300A3E069600EAC0A7902AA08AB09121B8A92
:10537300E9700579000254B7E50AF50C780C1208B8
:10538300D979027CFE7DFFAA08AB09121B067401C2
:10539300120903E960030254B5E50AC2E5F50AA25E
:1053A300E640437403120993AA08AB09121908E9EA
:1053B300702E125B0912209A8A0C8B0DAE0CAF0D66
:1053C300EE4F6022EE2402FAE43FFB1218FCE96080
:1053D30015EE2402FCE43FFD740312098B1211E85D
:1053E300E50AD2E5F50A901A7BE0F50C901AD21281
:1053F3005680780E1208D57D017C00901A7BE0F967
:10540300AA0EAB0F121B487402120903E9F8901A93
:105413007BE004F0E860030254B5E50AA2E550041A
:10542300740E80027406C0E07401120BDBD0E0122C
:1054330054DB121FB68A0E8B0FAE0EAF0FEE4F600A
:105443006D1264EAF0121F4A1251621254E17401A0
:10545300F07478550AA31265E8A3E50C1265E8A376
:10546300A3E508F0E5091254BCE4F0E50AA2E5500F
:105473000F7403120993E82406FAE439FB1211E8C6
:105483008E828F83A3A374FDF0A374FFF0E50B60FA
:1054930012902E23E493F8E50BC3985006124A4862
:1054A300E50BF0EEFAEFFB1219BCE9F9800679106F
:1054B300800279C7740B023DED88828983A3A3A37D
:1054C300A31254C8221254CC22F088828983A3A346
:1054D300A3A3A322E8F0A3E9F0AA18AB1922EE12C2
:1054E300703E3F1254EA22F583126219F9888289C9
:1054F300832274F41203F47A007B10901B2CE0F9DE
:105503001211C4EA4B4C4D6008901B3E7401F080AD
:1055130043901A4DE06401901D4B7006E0FC790145
:105523008004E0FC79037A007B00121AB2902E0605
:10553300E493F508740193F509E4F50AF50B78088B
:105543001208CD7A007B10901B2CE0F91211B27473
:105553000412090302407174F01203F4EAFEEBFF34
:105563008C0A8D0B890C121FCEE960057AFF025657
:1055730050901D4AE064026003025676902E0FE4B9
:1055830093F9EEFAEFFB121BBAE960030256707946
:1055930000EEFAEFFB121B90A90C121B848A088BF6
:1055A30009EA450970030256768A828B83A3A3A373
:1055B300A3A3126C4B707E12622B8508828509832C
:1055C300A3A3A3A3A3A3E05418604F902E18E493BE
:1055D300850882850983A3A3A3A3F07410120BDBB0
:1055E3001268E87412120BDB125680EA650A700324
:1055F300EB650B6012EA6C7002EB6D600AEA650EF4
:105603007003EB650F7022780E1208D5AA0AAB0B54
:105613001220D67402120903800F901AD1E0850874
:1056230082850983A3A3A3A3F074FE6A700374FFA6
:105633006B601E8045A3A3A3E0640360248A828B6E
:1056430083A3A3A3A3A3E0640470067AFE7BFF8075
:1056530029850882850983A3A3A3A3A3E064026029
:10566300127907EEFAEFFB121BBAE96006EEFAEFC6
:10567300FB8007EEFAEFFB121AC4023DF0E0F50ED1
:10568300A3E0F50F2274F71203F4EAFEEBFF1219FD
:1056930056E9700AEEFAEFFB121962E96006EEFAB8
:1056A300EFFB80047AFE7BFF024E3A74EE1203F4A2
:1056B300EAFEEBFF8C0C8D0D890E750800121FCED0
:1056C300E9790060030257F3EEFAEFFB121B90A98E
:1056D3000E121B848A0A8B0BEA450B607D8A828B30
:1056E30083A3A3A3A3A3E0640360238A828B83A37E
:1056F300A3A3A3A3E0640160030257F179078A829D
:105703008B83126229121BBAE960030257F17509F0
:1057130002850A82850B83A3A3A3A3A3A3E0541842
:1057230060030257A87900AA0CAB0D121B908A0ADA
:105733008B0BA80AA90B901AD2E0687003A3E06947
:1057430060030257D5902E0DE493FCA90EEEFAEFF9
:10575300FB121AB27508010257F1EEFAEFFB121AA7
:10576300C41219688A0A8B0BA80AA90BE849607E40
:1057730088828983A3A3A3A3A3E0A2E05070750941
:1057830001A2E150127901EEFCEFFDAA0CAB0D1260
:105793001AE2E97090805788828983A3A3A3A3A305
:1057A300D2E1F08080750801850A82850B83A3A36B
:1057B30012070E750AFE750BFF780A1208D57900D9
:1057C300EEFCEFFDAA0CAB0D121B9C740412090333
:1057D300801CA909EEFCEFFDAA0CAB0D121AE2E93D
:1057E300700C750801A90EEEFAEFFB121B3CA90819
:1057F300026A3874E91203F474F012099B8A0C8B61
:105803000D8C088D09750B06125B091220C48A10D2
:105813008B11EA4511600B8A828B83A3E07003022C
:10582300599DE50C241DF50EE4350DF50F850E820B
:10583300125D08F51688828983A3A3A3E0FA888200
:105843008983A3A3A3A3E0F8E4C8F9EA28FEE43913
:10585300FFAA08AB09121B42E9F9850E82850F8363
:10586300125B10E029F50EE50AA2E55003750B0E55
:105873007487550A700F7418550A64186007125C10
:10588300ED650B600A7AD37B001215A802599D536C
:105893000A7878081208D57D00AC0EA916125B1F92
:1058A300121B487402120903E9F8740368700302B7
:1058B300599D7427120BDBE0F512A3E0F513E860A2
:1058C3000302598E7418550A70030259A2E50AD2CD
:1058D300E0F50AA2E45004D2E1F50AA90A125B1F1B
:1058E300121B848A148B15A814A915E849605788DC
:1058F300828983A3A3A3A3A3A3E054186048888247
:105903008983A3A3A3A3A3E06401703AE51045111F
:1059130060341268E5888289831262291220C48A5E
:10592300148B15A814A915E849601B88828983A3E1
:10593300E06013851082851183A3E0FA888289834E
:10594300A3E0C39A4054E50AF50B780B1208D91269
:105953005B19121B067401120903E9702E7C007D8A
:105963000085128285138374FFF0A31265F6A3A347
:10597300A3A3A3A3A3A3E0600AE50C2415125AF57D
:105983001268E8A90E125B1F121A5E851282851334
:1059930083E0F47003A3E0F460487900025AE790CF
:1059A3001ACBE06014E50AF50B780B1208D9125BE9
:1059B30019121B067401120903E50AF50B780B1281
:1059C30008D979027CFE7DFFEEFAEFFB121B067409
:1059D30001120903E970B485128285138374FFF001
:1059E300A3F078081208D57D01AC0EA916125B1F2F
:1059F300121B487402120903A90AEEFAEFFB121BE9
:105A0300908A088B09A808A909901AD2E068700344
:105A1300A3E0696003025ADBEEFAEFFB1219688A0E
:105A2300088B09A808A909E849602788828983A304
:105A3300A3A3A3E06401600D88828983A3A3A3A326
:105A4300E06402700DAC18AD19EEFAEFFB12190801
:105A53008012121F4A8A088B09AC08AD09AA18AB39
:105A6300191211E8850C82850D83A3A3A3A3A3A315
:105A7300A3A3E064017012E50C2415125AF5126811
:105A8300E8740812098B1211E8E50C241DF582E471
:105A9300350D125AFDE04430F50878081208D97420
:105AA300011209838808890978081208D5740B1232
:105AB30009838808890978081208D5E516F5087856
:105AC300081208D97900EEFCEFFD125B1F121ADCF5
:105AD300740612090302599D125AF1125B10E50E66
:105AE300F0121F6274101209037F0F02064FE50CB8
:105AF300241DF582E4350DF58322F583E0F8A3E058
:105B0300F5838882A322901ADF125D242212741572
:105B1300A3A3A3A3A3227901AC08AD0912703C355A
:105B23000D125B2822F583E0FAA3E0FB2274EC124A
:105B330003F474F012099B8A0C8B0DECFAEDFB75E0
